:1000000020EF02F0EFEF02F0046ED8CF05F0E0CF62
:1000100006F00001E9CF0CF0EACF07F0E1CF08F0DD
:10002000E2CF09F0D9CF0AF0DACF0BF0F3CF12F01C
:10003000F4CF13F0FACF14F000C00EF001C00FF0AF
:1000400002C010F003C011F09DAA2AEF00F09EBA82
:1000500005EF01F0F0A630EF00F0F0B08EEF00F009
:10006000F0A836EF00F0F0B2D0EF00F09DA03CEF2A
:1000700000F09EB05DEF00F00EC000F00FC001F088
:1000800010C002F011C003F00CC0E9FF07C0EAFF86
:10009000078E08C0E1FF09C0E2FF0AC0D9FF0BC00C
:1000A000DAFF12C0F3FF13C0F4FF14C0FAFF0450CC
:1000B00006C0E0FF05C0D8FF10006D0ECF6E840EA5
:1000C000CE6E172A1750090803E2176A949A8B7AA2
:1000D0009E903CEF00F0928280B2FED7080E006E38
:1000E000926B008E0ED0009E0CD0D89080B2D8803B
:1000F0009233008C06D0009C002EF7D792C001F0FE
:100100000BD00B0E00BE030E016E012EFED700BEFB
:10011000EAD700BCF0D7E9D792EF00F0436A80B28B
:1001200019D0D9D701C043F04550452A036A480F7A
:10013000E96E000E0320EA6E43C0EFFF45501D0834
:1001400001E2456A43503F0805E18E81010E1A6EB7
:10015000196A186AF0903CEF00F0928480B4FED7E0
:10016000080E006E966B008E0ED0009E0CD0D890BC
:1001700080B4D8809633008C06D0009C002EF7D730
:1001800096C001F00BD03F0E00BE110E016E012E85
:10019000FED700BEEAD700BCF0D7E9D7DFEF00F00A
:1001A00080B424D04750472A036A840FE96E000EBA
:1001B0000320EA6EEACF95F0E9CF94F0CED795C050
:1001C000EAFF94C0E9FF01C0EFFF4750090801E2D0
:1001D000476A010E475C036A840FE96E000E032034
:1001E000EA6EEF500D0802E18E85476AF0923CEF0F
:1001F00000F09EAAFED7ABCF16F0AECF01F016A24C
:1002000002D0AB98AB8809EF01F0446A9EAA19D0DE
:10021000F0D701C044F04650462A036A660FE96EE3
:10022000000E0320EA6E44C0EFFF46501D0801E2B5
:10023000466A44503F0805E18E83010E1A6E196A22
:10024000186A9E9A3CEF00F044697374616E6369AA
:1002500061206D65646964613A202530352E3377FD
:10026000206D2E0D0A44697374616E636961207696
:100270006163696F3A2025352E3377206D2E0D0A84
:1002800044697374616E636961204C4C656E6F3AAA
:100290002025352E3377206D2E0D0A506F72636541
:1002A0006E74616A653A2025752025250D0A0000C7
:1002B0004E6F20657320756E20636F6D616E646F85
:1002C0002076616C69646F2C206E6F2073652072DC
:1002D00065636962696F206D6564696461200A09FC
:1002E0000D00496E696369616E646F00EA6A8F0E82
:1002F000E96EEF500DE0020E016E006A002EFED78F
:10030000012EFBD7970E006E002EFED7EF2EF3D7EF
:100310001200010E8F6FEADFF2CF8FF0F29EA96A12
:10032000A69CA69EA680A8508FBFF28E1B6EF2CF11
:100330008FF0F29E010EA96EA69CA69EA680A850E4
:100340008FBFF28E1C6EF2CF8FF0F29E020EA96E5E
:10035000A69CA69EA680A8508FBFF28E396EF2CFC3
:100360008FF0F29E100EA96EA69CA69EA680A850A5
:100370008FBFF28E2F6EF2CF8FF0F29E110EA96E0C
:10038000A69CA69EA680A8508FBFF28E306EF2CF9C
:100390008FF0F29E120EA96EA69CA69EA680A85073
:1003A0008FBFF28E336EF2CF8FF0F29E130EA96ED6
:1003B000A69CA69EA680A8508FBFF28E346E2FC03A
:1003C0002EF02D6A30502D26000E2E2233C032F032
:1003D000316A34503126000E322291EF02F09290B1
:1003E0008990080E016E00D00000018E0ED0019E93
:1003F0009133D8B08980D8A08990018C06D0019C17
:10040000012EF6D700D0000089800B0EE96EE92E90
:10041000FED7000001BEEBD701BCF1D712000900E6
:10042000F5520CE0F6CF8FF0F7CF90F0F5CF91F0CA
:10043000D6DF8FC0F6FF90C0F7FFF1D7E8EF02F0EC
:10044000F86AD09E078E600ED36E9B9C9B9E166AA8
:10045000B8960C0EAF6EA60EAC6E900EAB6E929070
:10046000898094908B80176A186A196A1A6AFE0E3E
:100470001D6E1E6E206A1F6A216A226A246A236A20
:10048000010E336E2C0E346E356A386A396A3D6A55
:100490003C6A3B6A3A6A416A406A3F6A3E6A426A1B
:1004A000436A446A456A466A476A8E918E938E957E
:1004B000000E7E6EC190C192C194C1967F6E6B6A30
:1004C0006D6A800E7E6EC190C192C194C196000E7D
:1004D0007F6EC050C00B0709C06EC08EC280BA6A62
:1004E000C69A949E9388939C010EC66E000EC76EAA
:1004F000C00EF2129D80F086F0889D8A9E90F0904A
:10050000F092B50ECD6E6D0ECF6E840ECE6E939CB6
:100510008A9CF19AF19893988A980A0E8F6FE6DE7A
:10052000F8D61B3C17D0F250006EF29EA96A010E5D
:10053000A86EA69CA69EA6840F01550EA76EAA0EB5
:10054000A76EA682A6B2FED7A6940050F212010EA4
:100550001B6E00011C3C17D0F250006EF29E010E83
:10056000A96EA86EA69CA69EA6840F01550EA76E26
:10057000AA0EA76EA682A6B2FED7A6940050F212CB
:10058000010E1C6E00012F3C04D0333C02D0FE0E45
:10059000426E393C16D0396AF250006EF29E020E5D
:1005A000A96EA86AA69CA69EA6840F01550EA76EEA
:1005B000AA0EA76EA682A6B2FED7A6940050F2128B
:1005C00000010A0E1A6EE20EF66E020EF76E27D7C3
:1005D0000D0E916F04DF0A0E916F01DF13D5FED768
:0205E000030016
:020000040030CA
:0E0000000068181E0088890003C003E003405A
:00000001FF
;PIC18F14K22
;CRC=BCC7  CREATED="09-may.-23 16:18"
